:020000040000FA
:100000000C94DB000C9403010C9403010C94030189
:100010000C9403010C9403010C9403010C94030150
:100020000C9403010C9403010C9403010C94030140
:100030000C9403010C9403010C9403010C94030130
:100040000C94DA030C9403010C944A040C942404D9
:100050000C9403010C9403010C9403010C94030110
:100060000C9403010C94030100407A10F35A00A091
:10007000724E18090010A5D4E80000E87648170071
:1000800000E40B54020000CA9A3B000000E1F505B1
:10009000000080969800000040420F000000A086FB
:1000A00001000000102700000000E803000000002D
:1000B0006400000000000A000000000001000000D1
:1000C00000002C76D888DC674F0823DFC1DFAE59EB
:1000D000E1B1B796E5E3E453C63AE651997696E87E
:1000E000E6C28426EB898C9B62ED407C6FFCEFBC02
:1000F0009C9F40F2BAA56FA5F490055A2AF75C932D
:100100006B6CF9676DC11BFCE0E40D47FEF520E662
:10011000B500D0ED902E0300943577050080841E45
:10012000080000204E0A000000C80C333333330FA0
:10013000986E12831141EF8D2114893BE65516CF3D
:10014000FEE6DB18D1844B381BF77C1D901DA4BB49
:10015000E424203284725E228100C9F124ECA1E5FE
:100160003D27000000080002010000030407000012
:1001700000000000000000000000250028002B0007
:1001800000000000240027002A00040404040404E2
:100190000404020202020202030303030303010236
:1001A0000408102040800102040810200102040805
:1001B00010207C043C0611241FBECFEFD8E0DEBF28
:1001C000CDBF21E0A6E3B1E001C01D92A03FB20780
:1001D000E1F711E0A0E0B1E0E2E9F7E102C005904B
:1001E0000D92A633B107D9F710E0CAEDD0E004C0F4
:1001F0002197FE010E94C409C93DD107C9F70E9499
:10020000F0040C94BC0B0C94000090E0FC01E2564E
:10021000FE4F249186579E4FFC018491882399F0CC
:1002200090E0880F991FFC01E058FE4FA591B49112
:10023000FC01EA58FE4F859194918FB7F894EC91A8
:10024000E22BEC938FBF089590E0FC01EE59FE4F36
:100250002491FC01E256FE4F3491FC01E657FE4F1B
:10026000E491EE23C9F0222339F0233001F1A8F400
:10027000213019F1223029F1F0E0EE0FFF1FEA588A
:10028000FE4FA591B4918FB7F894EC91611126C0FF
:1002900030953E233C938FBF08952730A9F0283036
:1002A000C9F0243049F7809180008F7D03C0809190
:1002B00080008F7780938000DFCF84B58F7784BDF7
:1002C000DBCF84B58F7DFBCF8091B0008F7780939B
:1002D000B000D2CF8091B0008F7DF9CF3E2BDACF26
:1002E000AF92BF92CF92DF92EF92FF920F931F9344
:1002F000CF93DF936C017B018B01040F151FEB0182
:100300005E01AE18BF08C017D10759F06991D60138
:10031000ED91FC910190F081E02DC6010995892BAA
:1003200079F7C501DF91CF911F910F91FF90EF9069
:10033000DF90CF90BF90AF900895FC01538D448D16
:10034000252F30E0842F90E0821B930B541710F080
:10035000CF96089501970895FC01918D828D98178D
:1003600061F0A28DAE0FBF2FB11D5D968C91928D65
:100370009F5F9F73928F90E008958FEF9FEF089596
:10038000FC01918D828D981731F0828DE80FF11D5F
:10039000858D90E008958FEF9FEF0895FC01918D7A
:1003A000228D892F90E0805C9F4F821B91098F7373
:1003B0009927089589E491E00E94CE0121E0892BDC
:1003C00009F420E0822F089580E090E0892B29F045
:1003D0000E94DA0181110C9400000895FC01A48DA3
:1003E000A80FB92FB11DA35ABF4F2C91848D90E057
:1003F00001968F739927848FA689B7892C93A0893A
:10040000B1898C91837080648C93938D848D9813C3
:1004100006C00288F389E02D80818F7D8083089556
:10042000EF92FF920F931F93CF93DF93EC0181E044
:10043000888F9B8D8C8D98131AC0E889F9898081EB
:1004400085FF15C09FB7F894EE89FF896083E8891E
:10045000F98980818370806480839FBF81E090E010
:10046000DF91CF911F910F91FF90EF900895F62E9D
:100470000B8D10E00F5F1F4F0F731127E02E8C8D37
:100480008E110CC00FB607FCFACFE889F98980817C
:1004900085FFF5CFCE010E94EE01F1CFEB8DEC0F81
:1004A000FD2FF11DE35AFF4FF0829FB7F8940B8F99
:1004B000EA89FB8980818062CFCFCF93DF93EC0103
:1004C000888D8823B9F0AA89BB89E889F9898C913C
:1004D00085FD03C0808186FD0DC00FB607FCF7CFF8
:1004E0008C9185FFF2CF808185FFEDCFCE010E94F8
:1004F000EE01E9CFDF91CF91089542E050E06EE147
:1005000071E089E491E00C947001CF93DF93EC01EA
:100510008091E6019091E701009759F02091E80160
:100520003091E9012C173D0720F081E0DF91CF9158
:100530000895BE016F5F7F4F0E94EF0A009789F018
:100540009093E7018093E601D093E901C093E8011D
:100550002091EA013091EB01232B39F7FC01108245
:10056000E4CF80E0E3CF0F931F93CF93DF93009707
:1005700031F480E0DF91CF911F910F9108956115C3
:100580007105E9F08C01C091EA01D091EB01C60F31
:10059000D71FCE010E948502882359F32091E601DE
:1005A0003091E7018091EA019091EB01B801820F4F
:1005B000931F0E94B50BD093EB01C093EA0181E039
:1005C000D9CFFC0101900020E9F73197BF01681BEA
:1005D000790B0C94B3020F931F93CF93DF93CDB796
:1005E000DEB728970FB6F894DEBF0FBECDBF4AE046
:1005F0008E010F5F1F4FB8010E946306F801019042
:100600000020E9F73197BF01601B710BC8010E9400
:10061000B30228960FB6F894DEBF0FBECDBFDF91B0
:10062000CF911F910F9108950F931F93CF93DF9355
:10063000CDB7DEB764970FB6F894DEBF0FBECDBF5F
:100640008E010F5F1F4F22E044E00E944506FC012F
:1006500001900020E9F73197BF01681B790B0E94D8
:10066000B30264960FB6F894DEBF0FBECDBFDF9124
:10067000CF911F910F91089590E080E00E94850234
:100680002091E6013091E70181118AC021153105E1
:1006900019F0C9010E94660A1092E7011092E60162
:1006A0001092EB011092EA011092E9011092E80118
:1006B00080910401909105010E94EB0281E291E09A
:1006C0000E94E10281E090E00E94EB0283E291E06F
:1006D0000E94E10280910201909103010E94EB02CD
:1006E00083E291E00E94E102609145017091460130
:1006F00080914701909148010E94140383E291E0A8
:100700000E94E10283E090E00E94EB0283E291E02C
:100710000E94E10260E070E0CB010E94140383E2DA
:1007200091E00E94E10283E090E00E94EB0283E20C
:1007300091E00E94E10260E070E0CB010E941403AE
:1007400083E291E00E94E102809100019091010119
:100750000E94EB0283E291E00E94E102609141017C
:100760007091420180914301909144010E941403D1
:1007700083E291E00E94E10280913F01909140016B
:100780000E94EB024091EA015091EB016091E60179
:100790007091E70189E491E00E9470010C947D0260
:1007A0001092EB011092EA0160E271E0C9010E942F
:1007B000B50B7ECF1F920F920FB60F9211242F937D
:1007C0003F938F939F93AF93BF9380913B01909101
:1007D0003C01A0913D01B0913E0130913A0123E0EE
:1007E000230F2D3758F50196A11DB11D20933A0115
:1007F00080933B0190933C01A0933D01B0933E0157
:100800008091360190913701A0913801B091390162
:100810000196A11DB11D8093360190933701A093DD
:100820003801B0933901BF91AF919F918F913F9162
:100830002F910F900FBE0F901F90189526E8230F51
:100840000296A11DB11DD2CF1F920F920FB60F922B
:1008500011242F933F934F935F936F937F938F93C5
:100860009F93AF93BF93EF93FF9389E491E00E942E
:10087000EE01FF91EF91BF91AF919F918F917F9189
:100880006F915F914F913F912F910F900FBE0F90FD
:100890001F9018951F920F920FB60F9211242F934D
:1008A0008F939F93EF93FF93E0915901F0915A0139
:1008B0008081E0915F01F091600182FD1BC0908119
:1008C000809162018F5F8F7320916301821741F0E5
:1008D000E0916201F0E0E75BFE4F958F809362014B
:1008E000FF91EF919F918F912F910F900FBE0F90DD
:1008F0001F9018958081F4CF10924C0110924B01FB
:1009000088EE93E0A0E0B0E080934D0190934E011B
:10091000A0934F01B093500180E191E090934A0180
:100920008093490185EC90E09093560180935501A6
:1009300084EC90E0909358018093570180EC90E014
:1009400090935A018093590181EC90E090935C015F
:1009500080935B0182EC90E090935E0180935D0157
:1009600086EC90E09093600180935F0110926201A9
:100970001092630110926401109265011092E701D8
:100980001092E6011092E9011092E8011092EB0139
:100990001092EA0190E080E00E9485022091E60139
:1009A0003091E701811113C02115310519F0C901FA
:1009B0000E94660A1092E7011092E6011092EB0184
:1009C0001092EA011092E9011092E8010895109244
:1009D000EB011092EA0160E271E0C9010C94B50BE1
:1009E000789484B5826084BD84B5816084BD85B50A
:1009F000826085BD85B5816085BD80916E00816016
:100A000080936E00109281008091810082608093BB
:100A100081008091810081608093810080918000BD
:100A20008160809380008091B10084608093B100E8
:100A30008091B00081608093B00080917A008460E2
:100A400080937A0080917A00826080937A0080910E
:100A50007A00816080937A0080917A008068809328
:100A60007A001092C10082E00E94050183E00E949A
:100A7000050184E00E94050185E00E940501E091E6
:100A80005901F0915A0182E08083E0915501F09183
:100A900056011082E0915701F09158018FEC80834C
:100AA00010926101E0915D01F0915E0186E080832A
:100AB000E0915B01F0915C01808180618083E09135
:100AC0005B01F0915C01808188608083E0915B0133
:100AD000F0915C01808180688083E0915B01F091FE
:100AE0005C0180818F7D808340E150E065E271E0B0
:100AF00089E491E00E9470010E947D02C0E0D0E094
:100B000089E491E00E94CE01181619060CF06EC01F
:100B100089E491E00E94AC01813309F07EC061E07C
:100B200082E00E94240160E083E00E94240160E0F2
:100B300084E00E94240160E085E00E94240180910D
:100B40000401909105018130910509F05AC080910E
:100B5000020190910301181619060CF047C020916C
:100B60003F0130914001232B09F040C01092050154
:100B700010920401019790930301809302018091E8
:100B80000001909101010197909301018093000170
:100B900020E030E040EC5FE3609145017091460158
:100BA00080914701909148010E9458096093450146
:100BB00070934601809347019093480120E030E014
:100BC00040EC5FE3609141017091420180914301EB
:100BD000909144010E945809609341017093420131
:100BE00080934301909344010E943C03209709F4B1
:100BF00087CF0E94DA01882309F482CF0E94000087
:100C00007FCF892B99F780913F0190914001019608
:100C10009093400180933F01E7CF823389F460E0F5
:100C200082E00E94240161E083E00E94240160E0F0
:100C300084E00E94240160E085E00E942401D6CF78
:100C4000833351F460E082E00E94240160E083E09D
:100C50000E94240161E0ECCF843341F660E082E041
:100C60000E94240160E083E00E94240160E084E0AF
:100C70000E94240161E0E0CF8091E6019091E701BC
:100C8000009711F00C94660A0895EF920F931F934A
:100C9000CF93DF93E80134E047FD34E1042E000CEC
:100CA000550B57FF03C0519541955109E32E022F73
:100CB000242FAE010E948806CE01DF91CF911F91B3
:100CC0000F91EF900895BB274A3031F4992322F415
:100CD000BDE2909581959F4F0C946F06BB27FB0159
:100CE0005527AA27880F991FAA1FA41710F0A41B25
:100CF00083955051B9F7A05DAA3308F0A95DA1937F
:100D0000009779F7B111B1931192CB010C94BF0800
:100D1000A9E0B0E0EEE8F6E00C9426096A01F22EB4
:100D2000B02E102FFBE3AF2EA01608F41BE31F5FBD
:100D3000012F27E0AE014F5F5F4F0E94E707BC0124
:100D40008981982F9970913009F43FC09BE2E1FCB2
:100D500004C09E2D9170E0FC3AC05E2D5071E82FCA
:100D6000E87083FF46C084E0911101C083E0EF2D5D
:100D7000E81B8F1508F0E0E0D6018E2F20E2552306
:100D800051F1992329F0D6019C93C60101966C017B
:100D900096012D5F3F4FE2FE24C08EE4D6018C9376
:100DA00091E411969C93119712968C93D9018E2FF2
:100DB00090E281111BC0E20FF32FF11D10828EEF24
:100DC0009FEF2996ECE00C9442099DE2C6CF90E299
:100DD000C4CF2D9381508111FCCFCE0ED11CE0E009
:100DE000D0CF8EE6D6018C9391E6DBCF9D938150D8
:100DF000E0CF482F447082FF3DC084E0911101C0D4
:100E000083E08F1510F4EF2DE81BD6018E2F20E222
:100E1000552309F1992329F0D6019C93C601019627
:100E20006C0196012D5F3F4FE2FE1BC089E4D601A5
:100E30008C938EE411968C93119786E412968C9382
:100E4000D9018E2F90E2882309F4B5CF9D9381506C
:100E5000FACF2D9381508111FCCFCE0ED11CE0E052
:100E6000D9CF89E6D6018C938EE611968C93119793
:100E700086E6E4CF9B0177FF02C030E020E0A1E0EE
:100E8000B0E0911102C0B0E0A0E0F9013196AE0FE0
:100E9000BF1F8B2C912CBB2009F461C05401EFEFD4
:100EA000AE1ABE0AAA0DBB1DFA161B0619F014F0E5
:100EB0004F2D4A1B511188C0E3FC59C07601A42F65
:100EC000B0E2A1114FC0C40ED11C992309F45BC03C
:100ED00040E0D6011196F60190836D01552309F487
:100EE00048C0012F060F9A81582F507184FF03C00C
:100EF000913309F4015010160CF047C0093008F086
:100F000008E0EEE2FE2E5B01A01AB1088501919483
:100F1000819491082F3F320729F4D601FC92F60103
:100F200031966F016217730794F1021713077CF56E
:100F3000DB01A21BB30BAA24A394B12CAC0EBD1EE3
:100F4000AA0DBB1D11968C9121503109D601119625
:100F500028153905F4F0F60180836D01DBCFB12C43
:100F6000A12CA0CFF701B1937F01A150AACF91117D
:100F7000B0CFD601942F50E302C05D9391509111F0
:100F8000FCCFC40ED11C40E0ACCF01E0BACF80E36F
:100F9000DBCF6217730731F4963388F4953311F47D
:100FA000552369F0F6018083FD01842F90E28111C1
:100FB00008C0A40FB11D1C9290E080E002CF81E335
:100FC000F1CF91938150F3CF911183CF8ACF283005
:100FD00008F027E03327DA01990F311D87FD916072
:100FE00000966105710539F432602E5F3D9330E360
:100FF0002A95E1F708959F3F30F08038710561052B
:1010000009F03C5F3C5F3D93913008F08068911D92
:10101000DF93CF931F930F93FF92EF92192F987F37
:101020009695E92F96959695E90FFF27EE53FF4F7A
:1010300099273327EE24FF24A701E70105900894A0
:10104000079428F4360FE71EF81E491F511D660F3E
:10105000771F881F991F0694A1F70590079428F41D
:10106000E70EF81E491F561FC11D770F881F991FD5
:10107000661F0694A1F70590079428F4F80E491FFF
:10108000561FC71FD11D880F991F661F771F069413
:10109000A1F70590079420F4490F561FC71FD81FCA
:1010A000990F661F771F881F0694A9F784911095E2
:1010B000177041F0D695C79557954795F794E794E3
:1010C0001A95C1F7E8E6F0E068941590159135910E
:1010D0006591959105907FE27395E118F10A430BB4
:1010E000560BC90BD009C0F7E10CF11E431F561F68
:1010F000C91FD01D7EF4703311F48A95E6CFE894B1
:10110000015030F0080F0AF40027021708F4202FCE
:101110002395022F7A3328F079E37D932A95E9F716
:1011200010C07D932A9589F6069497956795379513
:1011300017951794E118F10A430B560BC90BD00908
:1011400098F023957E9173957A3308F070E37C9341
:101150002013B8F77E9170617D9330F0839571E331
:101160007D9370E32A95E1F71124EF90FF900F91A2
:101170001F91CF91DF91992787FD90950895DC010C
:10118000FC01672F71917723E1F7329704C07C91BE
:101190006D9370836291AE17BF07C8F3089597F9F6
:1011A0009F6780E870E060E008959FEF80EC08950D
:1011B00000240A9416161706180609060895002436
:1011C0000A9412161306140605060895092E0394B0
:1011D000000C11F4882352F0BB0F40F4BF2B11F424
:1011E00060FF04C06F5F7F4F8F4F9F4F089557FD83
:1011F0009058440F551F59F05F3F71F04795880F85
:1012000097FB991F61F09F3F79F08795089512161B
:1012100013061406551FF2CF4695F1DF08C01616C7
:1012200017061806991FF1CF869571056105089478
:101230000895E894BB2766277727CB0197F908958F
:101240002F923F924F925F926F927F928F929F92D6
:10125000AF92BF92CF92DF92EF92FF920F931F93C4
:10126000CF93DF93CDB7DEB7CA1BDB0B0FB6F89475
:10127000DEBF0FBECDBF09942A88398848885F84B5
:101280006E847D848C849B84AA84B984C884DF8026
:10129000EE80FD800C811B81AA81B981CE0FD11D0A
:1012A0000FB6F894DEBF0FBECDBFED0108955058C4
:1012B000BB27AA270E946F090C94E6080E94D80851
:1012C00038F00E94DF0820F039F49F3F19F426F42B
:1012D0000C94D5080EF4E095E7FB0C94CF08E92FA9
:1012E0000E94F70858F3BA17620773078407950737
:1012F00020F079F4A6F50C9419090EF4E0950B2E64
:10130000BA2FA02D0B01B90190010C01CA01A00157
:101310001124FF27591B99F0593F50F4503E68F1B2
:101320001A16F040A22F232F342F4427585FF3CFF3
:10133000469537952795A795F0405395C9F77EF4C4
:101340001F16BA0B620B730B840BBAF09150A1F00D
:10135000FF0FBB1F661F771F881FC2F70EC0BA0F93
:10136000621F731F841F48F4879577956795B7951B
:10137000F7959E3F08F0B0CF9395880F08F0992716
:10138000EE0F979587950895EE0FFF1F0590F49146
:10139000E02D09940F931F93CF93DF938230910533
:1013A00010F482E090E0E091EE01F091EF0130E086
:1013B00020E0B0E0A0E0309799F42115310509F460
:1013C0004AC0281B390B24303105D8F58A819B810E
:1013D0006115710589F1FB0193838283FE0111C0C0
:1013E000408151810281138148175907E0F0481765
:1013F000590799F4109761F012960C93129713966F
:101400001C933296CF01DF91CF911F910F910895D8
:101410000093EE011093EF01F4CF2115310551F047
:101420004217530738F0A901DB019A01BD01DF0122
:10143000F801C1CFEF01F9CF9093EF018093EE0156
:10144000CDCFFE01E20FF31F81939193225031091A
:1014500039832883D7CF2091EC013091ED01232BE4
:1014600041F420910801309109013093ED0120935E
:10147000EC0120910601309107012115310541F45D
:101480002DB73EB740910A0150910B01241B350B3B
:10149000E091EC01F091ED01E217F307A0F42E1BAF
:1014A0003F0B2817390778F0AC014E5F5F4F2417C8
:1014B000350748F04E0F5F1F5093ED014093EC014C
:1014C000819391939FCFF0E0E0E09CCFCF93DF93A7
:1014D0000097E9F0FC01329713821282A091EE018D
:1014E000B091EF01ED0130E020E01097A1F42081F0
:1014F0003181820F931F2091EC013091ED0128176B
:10150000390709F061C0F093ED01E093EC01DF9140
:10151000CF910895EA01CE17DF07E8F54A815B8194
:101520009E0141155105B1F7E901FB83EA83499119
:101530005991C40FD51FEC17FD0761F4808191818B
:101540000296840F951FE901998388838281938194
:101550009B838A83F0E0E0E012968D919C91139733
:101560000097B9F52D913C911197CD010296820F0C
:10157000931F2091EC013091ED012817390739F6BE
:10158000309751F51092EF011092EE01B093ED01FA
:10159000A093EC01BCCFD383C28340815181840FDF
:1015A000951FC817D90761F44E5F5F4F88819981F5
:1015B000480F591F518340838A819B819383828383
:1015C0002115310509F0B0CFF093EF01E093EE0162
:1015D0009ECFFD01DC01C0CF13821282D7CFB0E0D5
:1015E000A0E0E5EFFAE00C9422098C01009751F499
:1015F000CB010E94CA098C01C801CDB7DEB7E0E17A
:101600000C943E09FC01E60FF71F9C0122503109A2
:10161000E217F30708F49DC0D901CD91DC91119731
:10162000C617D70798F0C530D10530F3CE0104971F
:101630008617970708F3C61BD70B2297C193D19340
:101640006D937C93CF010E94660AD6CF5B01AC1AE2
:10165000BD0A4C018C0E9D1EA091EE01B091EF01D0
:10166000512C412CF12CE12C109731F58091EC019B
:101670009091ED018815990509F05CC04616570652
:1016800008F058C08091060190910701009741F43D
:101690008DB79EB740910A0150910B01841B950BA9
:1016A000E817F90708F055C0F093ED01E093EC015D
:1016B000F90171836083A0CF8D919C91119712964F
:1016C0006C90129713967C901397A815B90559F54D
:1016D0006C0142E0C40ED11CCA14DB0420F1AC0141
:1016E0004A195B09DA011296159780F062827382BB
:1016F00051834083D9016D937C93E114F10471F01F
:10170000D7011396FC93EE93129776CF22968C0F07
:101710009D1FF90191838083F301EFCFF093EF01D7
:10172000E093EE0169CF4816590608F42C017D01BB
:10173000D3019ACFCB010E94CA097C01009749F0DE
:10174000AE01B8010E94AC0BC8010E94660A870175
:1017500053CF10E000E050CFFB01DC0102C001904C
:101760000D9241505040D8F70895FB01DC010190E3
:101770000D920020E1F7089510E0CAEDD0E004C01A
:10178000FE010E94C4092196CB3DD107C9F7F89408
:10179000FFCF0900030001000000F00180000000FD
:1017A0000000100270019D015D02CE01AC01C0017C
:1017B0000D0A002D003B00636F6E6578696F6E2027
:0817C000657869746F73610024
:107E0000112484B714BE81FFF0D085E080938100F7
:107E100082E08093C00088E18093C10086E0809377
:107E2000C20080E18093C4008EE0C9D0259A86E02C
:107E300020E33CEF91E0309385002093840096BBD3
:107E4000B09BFECF1D9AA8958150A9F7CC24DD24C4
:107E500088248394B5E0AB2EA1E19A2EF3E0BF2EE7
:107E6000A2D0813461F49FD0082FAFD0023811F036
:107E7000013811F484E001C083E08DD089C08234E0
:107E800011F484E103C0853419F485E0A6D080C0E4
:107E9000853579F488D0E82EFF2485D0082F10E0AE
:107EA000102F00270E291F29000F111F8ED06801E7
:107EB0006FC0863521F484E090D080E0DECF843638
:107EC00009F040C070D06FD0082F6DD080E0C81688
:107ED00080E7D80618F4F601B7BEE895C0E0D1E017
:107EE00062D089930C17E1F7F0E0CF16F0E7DF06D8
:107EF00018F0F601B7BEE89568D007B600FCFDCFD4
:107F0000A601A0E0B1E02C9130E011968C91119780
:107F100090E0982F8827822B932B1296FA010C0160
:107F200087BEE89511244E5F5F4FF1E0A038BF0790
:107F300051F7F601A7BEE89507B600FCFDCF97BE46
:107F4000E89526C08437B1F42ED02DD0F82E2BD052
:107F50003CD0F601EF2C8F010F5F1F4F84911BD097
:107F6000EA94F801C1F70894C11CD11CFA94CF0C13
:107F7000D11C0EC0853739F428D08EE10CD085E9AC
:107F80000AD08FE07ACF813511F488E018D01DD067
:107F900080E101D065CF982F8091C00085FFFCCF94
:107FA0009093C60008958091C00087FFFCCF809118
:107FB000C00084FD01C0A8958091C6000895E0E648
:107FC000F0E098E1908380830895EDDF803219F02E
:107FD00088E0F5DFFFCF84E1DECF1F93182FE3DFCA
:107FE0001150E9F7F2DF1F91089580E0E8DFEE27F6
:047FF000FF270994CA
:027FFE00040479
:00000001FF
