:100000000C94DB000C9403010C9403010C94030189
:100010000C9403010C9403010C9403010C94030150
:100020000C9403010C9403010C9403010C94030140
:100030000C9403010C9403010C9403010C94030130
:100040000C9403040C9403010C9473040C944D045D
:100050000C9403010C9403010C9403010C94030110
:100060000C9403010C94030100407A10F35A00A091
:10007000724E18090010A5D4E80000E87648170071
:1000800000E40B54020000CA9A3B000000E1F505B1
:10009000000080969800000040420F000000A086FB
:1000A00001000000102700000000E803000000002D
:1000B0006400000000000A000000000001000000D1
:1000C00000002C76D888DC674F0823DFC1DFAE59EB
:1000D000E1B1B796E5E3E453C63AE651997696E87E
:1000E000E6C28426EB898C9B62ED407C6FFCEFBC02
:1000F0009C9F40F2BAA56FA5F490055A2AF75C932D
:100100006B6CF9676DC11BFCE0E40D47FEF520E662
:10011000B500D0ED902E0300943577050080841E45
:10012000080000204E0A000000C80C333333330FA0
:10013000986E12831141EF8D2114893BE65516CF3D
:10014000FEE6DB18D1844B381BF77C1D901DA4BB49
:10015000E424203284725E228100C9F124ECA1E5FE
:100160003D27000000080002010000030407000012
:1001700000000000000000000000250028002B0007
:1001800000000000240027002A00040404040404E2
:100190000404020202020202030303030303010236
:1001A0000408102040800102040810200102040805
:1001B0001020A504100711241FBECFEFD8E0DEBF2A
:1001C000CDBF22E0AEE4B1E001C01D92A231B20782
:1001D000E1F711E0A0E0B1E0EAE8F9E102C0059042
:1001E0000D92AE34B107D9F710E0CAEDD0E004C0EB
:1001F0002197FE010E94C00AC93DD107C9F70E949C
:1002000019050C94B80C0C94000090E0FC01E25627
:10021000FE4F249186579E4FFC018491882399F0CC
:1002200090E0880F991FFC01E058FE4FA591B49112
:10023000FC01EA58FE4F859194918FB7F894EC91A8
:10024000E22BEC938FBF089590E0FC01EE59FE4F36
:100250002491FC01E256FE4F3491FC01E657FE4F1B
:10026000E491EE23C9F0222339F0233001F1A8F400
:10027000213019F1223029F1F0E0EE0FFF1FEA588A
:10028000FE4FA591B4918FB7F894EC91611126C0FF
:1002900030953E233C938FBF08952730A9F0283036
:1002A000C9F0243049F7809180008F7D03C0809190
:1002B00080008F7780938000DFCF84B58F7784BDF7
:1002C000DBCF84B58F7DFBCF8091B0008F7780939B
:1002D000B000D2CF8091B0008F7DF9CF3E2BDACF26
:1002E000AF92BF92CF92DF92EF92FF920F931F9344
:1002F000CF93DF936C017B018B01040F151FEB0182
:100300005E01AE18BF08C017D10759F06991D60138
:10031000ED91FC910190F081E02DC6010995892BAA
:1003200079F7C501DF91CF911F910F91FF90EF9069
:10033000DF90CF90BF90AF900895FC01538D448D16
:10034000252F30E0842F90E0821B930B541710F080
:10035000CF96089501970895FC01918D828D98178D
:1003600061F0A28DAE0FBF2FB11D5D968C91928D65
:100370009F5F9F73928F90E008958FEF9FEF089596
:10038000FC01918D828D981731F0828DE80FF11D5F
:10039000858D90E008958FEF9FEF0895FC01918D7A
:1003A000228D892F90E0805C9F4F821B91098F7373
:1003B000992708958BE691E00E94CE0121E0892BD8
:1003C00009F420E0822F089580E090E0892B29F045
:1003D0000E94DA0181110C9400000895FC01A48DA3
:1003E000A80FB92FB11DA35ABF4F2C91848D90E057
:1003F00001968F739927848FA689B7892C93A0893A
:10040000B1898C91837080648C93938D848D9813C3
:1004100006C00288F389E02D80818F7D8083089556
:10042000EF92FF920F931F93CF93DF93EC0181E044
:10043000888F9B8D8C8D98131AC0E889F9898081EB
:1004400085FF15C09FB7F894EE89FF896083E8891E
:10045000F98980818370806480839FBF81E090E010
:10046000DF91CF911F910F91FF90EF900895F62E9D
:100470000B8D10E00F5F1F4F0F731127E02E8C8D37
:100480008E110CC00FB607FCFACFE889F98980817C
:1004900085FFF5CFCE010E94EE01F1CFEB8DEC0F81
:1004A000FD2FF11DE35AFF4FF0829FB7F8940B8F99
:1004B000EA89FB8980818062CFCFCF93DF93EC0103
:1004C000888D8823B9F0AA89BB89E889F9898C913C
:1004D00085FD03C0808186FD0DC00FB607FCF7CFF8
:1004E0008C9185FFF2CF808185FFEDCFCE010E94F8
:1004F000EE01E9CFDF91CF91089542E050E062E252
:1005000071E08BE691E00C947001CF93DF93FC01D6
:1005100001900020E9F73197AF01481B590BBC014E
:100520008BE691E00E947001EC010E947D028C0F2D
:100530009D1FDF91CF910895CF93DF93EC018091C0
:10054000080290910902009759F020910A02309117
:100550000B022C173D0720F081E0DF91CF91089529
:10056000BE016F5F7F4F0E94EB0B009789F0909365
:10057000090280930802D0930B02C0930A022091D3
:100580000C0230910D02232B39F7FC011082E4CFCD
:1005900080E0E3CF0F931F93CF93DF93009731F465
:1005A00080E0DF91CF911F910F9108956115710542
:1005B000E9F08C01C0910C02D0910D02C60FD71F3B
:1005C000CE010E949C02882359F3209108023091A9
:1005D000090280910C0290910D02B801820F931FC5
:1005E0000E94B10CD0930D02C0930C0281E0D9CFD0
:1005F000FC0101900020E9F73197BF01681B790BDE
:100600000C94CA020F931F93CF93DF93CDB7DEB73D
:1006100028970FB6F894DEBF0FBECDBF4AE08E011B
:100620000F5F1F4FB8010E943707F80101900020AB
:10063000E9F73197BF01601B710BC8010E94CA0224
:1006400028960FB6F894DEBF0FBECDBFDF91CF91D5
:100650001F910F9108950F931F93CF93DF93CDB701
:10066000DEB764970FB6F894DEBF0FBECDBF8E0124
:100670000F5F1F4F22E044E00E941907FC01019028
:100680000020E9F73197BF01681B790B0E94CA026D
:1006900064960FB6F894DEBF0FBECDBFDF91CF9149
:1006A0001F910F910895CF93DF93EC0190E080E0CC
:1006B0000E949C022091080230910902811199C088
:1006C0002115310519F0C9010E94620B109209022F
:1006D0001092080210920D0210920C0210920B025E
:1006E00010920A0280910801909109010E94020370
:1006F00085E291E00E94F802CE010E94020387E2A7
:1007000091E00E94F80280910601909107010E94F9
:10071000020387E291E00E94F80260915A01709111
:100720005B0180915C0190915D010E942B0387E247
:1007300091E00E94F80280910201909103010E94D1
:10074000020387E291E00E94F802609152017091E9
:10075000530180915401909155010E942B0387E22F
:1007600091E00E94F80280910001909101010E94A5
:10077000020387E291E00E94F80260914E017091BD
:100780004F0180915001909151010E942B0387E20B
:1007900091E00E94F80280910401909105010E946D
:1007A000020387E291E00E94F80260915601709185
:1007B000570180915801909159010E942B0387E2C3
:1007C00091E00E94F80280916001909161010E9485
:1007D000020340910C0250910D0260910802709149
:1007E00009028BE691E00E947001DF91CF910C9499
:1007F0007D0210920D0210920C0264E271E0C901B8
:100800000E94B10C6FCF1F920F920FB60F9211245E
:100810002F933F938F939F93AF93BF9380916701E3
:1008200090916801A0916901B0916A0130916601CF
:1008300023E0230F2D3758F50196A11DB11D2093FC
:1008400066018093670190936801A0936901B0935A
:100850006A018091620190916301A0916401B0915D
:1008600065010196A11DB11D809362019093630102
:10087000A0936401B0936501BF91AF919F918F9157
:100880003F912F910F900FBE0F901F90189526E863
:10089000230F0296A11DB11DD2CF1F920F920FB64A
:1008A0000F9211242F933F934F935F936F937F93F6
:1008B0008F939F93AF93BF93EF93FF938BE691E05A
:1008C0000E94EE01FF91EF91BF91AF919F918F91A7
:1008D0007F916F915F914F913F912F910F900FBE3C
:1008E0000F901F9018951F920F920FB60F92112420
:1008F0002F938F939F93EF93FF93E0917B01F09160
:100900007C018081E0918101F091820182FD1BC018
:100910009081809184018F5F8F7320918501821770
:1009200041F0E0918401F0E0E559FE4F958F80930E
:100930008401FF91EF919F918F912F910F900FBEA6
:100940000F901F9018958081F4CF10926E01109235
:100950006D0188EE93E0A0E0B0E080936F0190938A
:100960007001A0937101B093720184E191E09093C2
:100970006C0180936B0185EC90E0909378018093FB
:10098000770184EC90E090937A018093790180EC78
:1009900090E090937C0180937B0181EC90E09093B8
:1009A0007E0180937D0182EC90E0909380018093A2
:1009B0007F0186EC90E090938201809381011092F8
:1009C0008401109285011092860110928701109285
:1009D00009021092080210920B0210920A02109261
:1009E0000D0210920C0290E080E00E949C02209187
:1009F000080230910902811113C02115310519F047
:100A0000C9010E94620B1092090210920802109212
:100A10000D0210920C0210920B0210920A0208951D
:100A200010920D0210920C0264E271E0C9010C9464
:100A3000B10C789484B5826084BD84B5816084BD36
:100A400085B5826085BD85B5816085BD80916E006C
:100A5000816080936E00109281008091810082609D
:100A600080938100809181008160809381008091DA
:100A700080008160809380008091B10084608093C9
:100A8000B1008091B00081608093B00080917A00C5
:100A9000846080937A0080917A00826080937A00EB
:100AA00080917A00816080937A0080917A008068DA
:100AB00080937A001092C10082E00E94050183E0D9
:100AC0000E94050184E00E940501E0917B01F09104
:100AD0007C0182E08083E0917701F09178011082BF
:100AE000E0917901F0917A018FEC8083109283017B
:100AF000E0917F01F091800186E08083E0917D01AB
:100B0000F0917E01808180618083E0917D01F09190
:100B10007E01808188608083E0917D01F0917E017B
:100B2000808180688083E0917D01F0917E018081E9
:100B30008F7D808389E291E00E94850204E610E0C7
:100B4000C0E0D0E08BE691E00E94CE0118161906B5
:100B50000CF03CC18BE691E00E94AC01813309F0BE
:100B600062C061E082E00E94240160E083E00E94B4
:100B7000240160E084E00E942401809108019091AA
:100B800009018130910509F0C1C080910601909161
:100B90000701181619060CF0AEC0209160013091C3
:100BA0006101232B09F0A7C01092090110920801DE
:100BB0000197909307018093060180910401909121
:100BC00005010197909305018093040120E030E036
:100BD00040EC5FE360915A0170915B0180915C0190
:100BE00090915D010E942C0A60935A0170935B0101
:100BF00080935C0190935D0120E030E040EC5FE386
:100C0000609156017091570180915801909159015E
:100C10000E942C0A609356017093570180935801EB
:100C2000909359017EC0823309F07EC060E082E07B
:100C30000E94240161E083E00E94240160E084E0DE
:100C40000E94240180910801909109018130910551
:100C500009F05CC0809102019091030118161906F9
:100C60000CF049C02091600130916101232B09F003
:100C700042C010920901109208010197909303015C
:100C80008093020180910401909105010197909356
:100C900005018093040120E030E040E050E46091E1
:100CA00052017091530180915401909155010E941D
:100CB0002C0A6093520170935301809354019093D6
:100CC000550120E030E040E050E460915601709121
:100CD000570180915801909159010E942C0A60930C
:100CE000560170935701809358019093590182E007
:100CF00090E00E945303209709F424CF0E94DA0168
:100D0000882309F41FCF0E9400001CCF892B99F77C
:100D100080916001909161010196909361018093AF
:100D2000600181E090E0E5CF833329F760E082E065
:100D30000E94240160E083E00E94240161E084E0DD
:100D40000E9424018BE691E00E94AC018091080191
:100D500090910901019779F680910001909101012C
:100D60001816190644F62091600130916101232B79
:100D700011F6109209011092080101979093010158
:100D80008093000180910401909105010197909357
:100D900005018093040120E030E040E250E46091DE
:100DA0004E0170914F0180915001909151010E942C
:100DB0002C0A60934E0170934F01809350019093E1
:100DC000510120E030E040E250E41ACF8091080168
:100DD00090910901892B09F08ECF8091600190914B
:100DE0006101019690936101809360018BE691E02F
:100DF0000E94AC0180915E0190915F010196B80163
:100E00000E94980A009739F48AE391E00E948502D3
:100E100083E090E06ECF90935F0180935E01F8CF06
:100E20008091080290910902009711F00C94620BD6
:100E30000895EF920F931F93CF93DF93E80134E06F
:100E400047FD34E1042E000C550B57FF03C05195AC
:100E500041955109E32E022F242FAE010E945C0719
:100E6000CE01DF91CF911F910F91EF900895BB2795
:100E70004A3031F4992322F4BDE2909581959F4F39
:100E80000C944307BB27FB015527AA27880F991FFE
:100E9000AA1FA41710F0A41B83955051B9F7A05DA9
:100EA000AA3308F0A95DA193009779F7B111B19326
:100EB0001192CB010C949309A9E0B0E0E2E6F7E0CF
:100EC0000C94FA096A01F22EB02E102FFBE3AF2E1C
:100ED000A01608F41BE31F5F012F27E0AE014F5F50
:100EE0005F4F0E94BB08BC018981982F9970913097
:100EF00009F43FC09BE2E1FC04C09E2D9170E0FC30
:100F00003AC05E2D5071E82FE87083FF46C084E040
:100F1000911101C083E0EF2DE81B8F1508F0E0E090
:100F2000D6018E2F20E2552351F1992329F0D601C5
:100F30009C93C60101966C0196012D5F3F4FE2FE26
:100F400024C08EE4D6018C9391E411969C93119762
:100F500012968C93D9018E2F90E281111BC0E20F63
:100F6000F32FF11D10828EEF9FEF2996ECE00C9489
:100F7000160A9DE2C6CF90E2C4CF2D938150811115
:100F8000FCCFCE0ED11CE0E0D0CF8EE6D6018C9304
:100F900091E6DBCF9D938150E0CF482F447082FFD4
:100FA0003DC084E0911101C083E08F1510F4EF2D56
:100FB000E81BD6018E2F20E2552309F1992329F051
:100FC000D6019C93C60101966C0196012D5F3F4F9F
:100FD000E2FE1BC089E4D6018C938EE411968C93BB
:100FE000119786E412968C93D9018E2F90E2882374
:100FF00009F4B5CF9D938150FACF2D938150811183
:10100000FCCFCE0ED11CE0E0D9CF89E6D6018C937F
:101010008EE611968C93119786E6E4CF9B0177FFBD
:1010200002C030E020E0A1E0B0E0911102C0B0E0E9
:10103000A0E0F9013196AE0FBF1F8B2C912CBB2085
:1010400009F461C05401EFEFAE1ABE0AAA0DBB1D30
:10105000FA161B0619F014F04F2D4A1B511188C0C7
:10106000E3FC59C07601A42FB0E2A1114FC0C40E19
:10107000D11C992309F45BC040E0D6011196F6011A
:1010800090836D01552309F448C0012F060F9A8102
:10109000582F507184FF03C0913309F4015010168A
:1010A0000CF047C0093008F008E0EEE2FE2E5B01CC
:1010B000A01AB10885019194819491082F3F3207BD
:1010C00029F4D601FC92F60131966F01621773077D
:1010D00094F1021713077CF5DB01A21BB30BAA24C2
:1010E000A394B12CAC0EBD1EAA0DBB1D11968C9104
:1010F00021503109D601119628153905F4F0F60171
:1011000080836D01DBCFB12CA12CA0CFF701B1936F
:101110007F01A150AACF9111B0CFD601942F50E3F7
:1011200002C05D9391509111FCCFC40ED11C40E0E0
:10113000ACCF01E0BACF80E3DBCF6217730731F4A5
:10114000963388F4953311F4552369F0F6018083C2
:10115000FD01842F90E2811108C0A40FB11D1C92E3
:1011600090E080E002CF81E3F1CF91938150F3CF03
:10117000911183CF8ACF283008F027E03327DA0196
:10118000990F311D87FD916000966105710539F455
:1011900032602E5F3D9330E32A95E1F708959F3F3B
:1011A00030F080387105610509F03C5F3C5F3D938C
:1011B000913008F08068911DDF93CF931F930F93B8
:1011C000FF92EF92192F987F9695E92F9695969515
:1011D000E90FFF27EE53FF4F99273327EE24FF2413
:1011E000A701E70105900894079428F4360FE71E3D
:1011F000F81E491F511D660F771F881F991F0694FF
:10120000A1F70590079428F4E70EF81E491F561F12
:10121000C11D770F881F991F661F0694A1F70590BF
:10122000079428F4F80E491F561FC71FD11D880FB9
:10123000991F661F771F0694A1F70590079420F465
:10124000490F561FC71FD81F990F661F771F881F8A
:101250000694A9F784911095177041F0D695C7951B
:1012600057954795F794E7941A95C1F7E8E6F0E0AB
:1012700068941590159135916591959105907FE24F
:101280007395E118F10A430B560BC90BD009C0F74F
:10129000E10CF11E431F561FC91FD01D7EF4703391
:1012A00011F48A95E6CFE894015030F0080F0AF463
:1012B0000027021708F4202F2395022F7A3328F0F5
:1012C00079E37D932A95E9F710C07D932A9589F6F5
:1012D000069497956795379517951794E118F10A35
:1012E000430B560BC90BD00998F023957E9173954B
:1012F0007A3308F070E37C932013B8F77E91706125
:101300007D9330F0839571E37D9370E32A95E1F747
:101310001124EF90FF900F911F91CF91DF919927AA
:1013200087FD90950895DC01FC01672F719177236B
:10133000E1F7329704C07C916D9370836291AE1790
:10134000BF07C8F3089597F99F6780E870E060E0F1
:1013500008959FEF80EC089500240A94161617064E
:1013600018060906089500240A9412161306140696
:1013700005060895092E0394000C11F4882352F0F9
:10138000BB0F40F4BF2B11F460FF04C06F5F7F4FB1
:101390008F4F9F4F089557FD9058440F551F59F098
:1013A0005F3F71F04795880F97FB991F61F09F3F52
:1013B00079F087950895121613061406551FF2CF7B
:1013C0004695F1DF08C0161617061806991FF1CFCB
:1013D00086957105610508940895E894BB276627F2
:1013E0007727CB0197F908952F923F924F925F9202
:1013F0006F927F928F929F92AF92BF92CF92DF9225
:10140000EF92FF920F931F93CF93DF93CDB7DEB789
:10141000CA1BDB0B0FB6F894DEBF0FBECDBF09941D
:101420002A88398848885F846E847D848C849B8474
:10143000AA84B984C884DF80EE80FD800C811B8182
:10144000AA81B981CE0FD11D0FB6F894DEBF0FBEB1
:10145000CDBFED0108955058BB27AA270E94430A2B
:101460000C94BA090E94AC0938F00E94B30920F02C
:1014700039F49F3F19F426F40C94A9090EF4E09571
:10148000E7FB0C94A309E92F0E94CB0958F3BA1784
:10149000620773078407950720F079F4A6F50C948A
:1014A000ED090EF4E0950B2EBA2FA02D0B01B9011A
:1014B00090010C01CA01A0011124FF27591B99F0CA
:1014C000593F50F4503E68F11A16F040A22F232FD6
:1014D000342F4427585FF3CF469537952795A79526
:1014E000F0405395C9F77EF41F16BA0B620B730BCD
:1014F000840BBAF09150A1F0FF0FBB1F661F771F3E
:10150000881FC2F70EC0BA0F621F731F841F48F4F2
:10151000879577956795B795F7959E3F08F0B0CF7B
:101520009395880F08F09927EE0F97958795089562
:1015300097FB072E16F4009407D077FD09D00E9480
:10154000AC0A07FC05D03EF4909581959F4F089515
:10155000709561957F4F0895AA1BBB1B51E107C091
:10156000AA1FBB1FA617B70710F0A61BB70B881F33
:10157000991F5A95A9F780959095BC01CD010895C2
:10158000EE0FFF1F0590F491E02D09940F931F9328
:10159000CF93DF938230910510F482E090E0E091E8
:1015A0001002F091110230E020E0B0E0A0E03097AE
:1015B00099F42115310509F44AC0281B390B243050
:1015C0003105D8F58A819B816115710589F1FB018F
:1015D00093838283FE0111C0408151810281138176
:1015E00048175907E0F04817590799F4109761F028
:1015F00012960C93129713961C933296CF01DF919B
:10160000CF911F910F910895009310021093110232
:10161000F4CF2115310551F04217530738F0A901D5
:10162000DB019A01BD01DF01F801C1CFEF01F9CF64
:101630009093110280931002CDCFFE01E20FF31FB1
:10164000819391932250310939832883D7CF2091F8
:101650000E0230910F02232B41F420910C013091A6
:101660000D0130930F0220930E0220910A01309158
:101670000B012115310541F42DB73EB740910E0104
:1016800050910F01241B350BE0910E02F0910F02D7
:10169000E217F307A0F42E1B3F0B2817390778F049
:1016A000AC014E5F5F4F2417350748F04E0F5F1FA8
:1016B00050930F0240930E02819391939FCFF0E0DD
:1016C000E0E09CCFCF93DF930097E9F0FC013297E5
:1016D00013821282A0911002B0911102ED0130E04C
:1016E00020E01097A1F420813181820F931F209177
:1016F0000E0230910F022817390709F061C0F093EC
:101700000F02E0930E02DF91CF910895EA01CE1708
:10171000DF07E8F54A815B819E0141155105B1F76C
:10172000E901FB83EA8349915991C40FD51FEC1756
:10173000FD0761F4808191810296840F951FE90174
:1017400099838883828193819B838A83F0E0E0E0A0
:1017500012968D919C9113970097B9F52D913C911C
:101760001197CD010296820F931F20910E023091A6
:101770000F022817390739F6309751F510921102E8
:1017800010921002B0930F02A0930E02BCCFD3832D
:10179000C28340815181840F951FC817D90761F416
:1017A0004E5F5F4F88819981480F591F5183408355
:1017B0008A819B81938382832115310509F0B0CF03
:1017C000F0931102E09310029ECFFD01DC01C0CF27
:1017D00013821282D7CFB0E0A0E0E1EFFBE00C94DF
:1017E000F6098C01009751F4CB010E94C60A8C01C6
:1017F000C801CDB7DEB7E0E10C94120AFC01E60F98
:10180000F71F9C0122503109E217F30708F49DC02D
:10181000D901CD91DC911197C617D70798F0C53043
:10182000D10530F3CE0104978617970708F3C61B3E
:10183000D70B2297C193D1936D937C93CF010E94D4
:10184000620BD6CF5B01AC1ABD0A4C018C0E9D1EFB
:10185000A0911002B0911102512C412CF12CE12CDD
:10186000109731F580910E0290910F02881599051D
:1018700009F05CC04616570608F058C080910A016E
:1018800090910B01009741F48DB79EB740910E01E6
:1018900050910F01841B950BE817F90708F055C00C
:1018A000F0930F02E0930E02F90171836083A0CFE1
:1018B0008D919C91119712966C90129713967C9033
:1018C0001397A815B90559F56C0142E0C40ED11C57
:1018D000CA14DB0420F1AC014A195B09DA01129643
:1018E000159780F06282738251834083D9016D9392
:1018F0007C93E114F10471F0D7011396FC93EE93FD
:10190000129776CF22968C0F9D1FF90191838083C9
:10191000F301EFCFF0931102E093100269CF481664
:10192000590608F42C017D01D3019ACFCB010E9406
:10193000C60A7C01009749F0AE01B8010E94A80CCC
:10194000C8010E94620B870153CF10E000E050CF26
:10195000FB01DC0102C001900D9241505040D8F7CC
:101960000895FB01DC0101900D920020E1F708953C
:1019700010E0CAEDD0E004C0FE010E94C00A21962A
:0A198000CB3DD107C9F7F894FFCF63
:10198A0003000300090003000100000012028000A6
:10199A0000000000100270019D015D02CE01AC0141
:1019AA00C0010D0A002D003B00636F6E6578696FF8
:1019BA006E20657869746F7361004C6120636F6C87
:0E19CA00612065737461206C6C656E610000B5
:00000001FF
