:100000000C94E0000C9408010C9408010C94080175
:100010000C9408010C9408010C9408010C9408013C
:100020000C9408010C9408010C9408010C9408012C
:100030000C9408010C9408010C9408010C9408011C
:100040000C94A2040C9408010C9412050C94EC047A
:100050000C9408010C9408010C9408010C940801FC
:100060000C9408010C94080100407A10F35A00A087
:10007000724E18090010A5D4E80000E87648170071
:1000800000E40B54020000CA9A3B000000E1F505B1
:10009000000080969800000040420F000000A086FB
:1000A00001000000102700000000E803000000002D
:1000B0006400000000000A000000000001000000D1
:1000C00000002C76D888DC674F0823DFC1DFAE59EB
:1000D000E1B1B796E5E3E453C63AE651997696E87E
:1000E000E6C28426EB898C9B62ED407C6FFCEFBC02
:1000F0009C9F40F2BAA56FA5F490055A2AF75C932D
:100100006B6CF9676DC11BFCE0E40D47FEF520E662
:10011000B500D0ED902E0300943577050080841E45
:10012000080000204E0A000000C80C333333330FA0
:10013000986E12831141EF8D2114893BE65516CF3D
:10014000FEE6DB18D1844B381BF77C1D901DA4BB49
:10015000E424203284725E228100C9F124ECA1E5FE
:100160003D270000000023002600290000000000B9
:10017000240027002A0000000000250028002B0092
:10018000040404040404040402020202020203033D
:100190000303030301020408102040800102040845
:1001A00010200102040810200000000800020100D5
:1001B000000304070000000000000000890550094A
:1001C00011241FBECFEFD8E0DEBFCDBF21E0AAE2F1
:1001D000B1E001C01D92AE3FB207E1F711E0A0E02F
:1001E000B1E0EAEBFDE102C005900D92AA32B10741
:1001F000D9F710E0CFEDD0E004C02197FE010E94B6
:10020000D80CCE3DD107C9F70E94FD050C94D00E45
:100210000C94000090E0FC01E855FE4F2491FC0195
:10022000EC56FE4F3491FC01E058FE4FE491EE2372
:10023000C9F0222339F0233001F1A8F4213019F15B
:10024000223029F1F0E0EE0FFF1FEA58FE4FA59192
:10025000B4918FB7F894EC91611126C030953E238C
:100260003C938FBF08952730A9F02830C9F024307F
:1002700049F7809180008F7D03C0809180008F7747
:1002800080938000DFCF84B58F7784BDDBCF84B5CA
:100290008F7DFBCF8091B0008F778093B000D2CF5D
:1002A0008091B0008F7DF9CF3E2BDACFCF93DF93D3
:1002B00090E0FC01EC56FE4F249180589E4FFC01CB
:1002C00084918823D1F090E0880F991FFC01E459B4
:1002D000FE4FA591B491FC01EA58FE4FC591D4910F
:1002E00061110EC09FB7F8948C91E22FE0958E2398
:1002F0008C932881E223E8839FBFDF91CF910895FB
:100300008FB7F894EC91E22BEC938FBFF6CF3FB709
:10031000F8948091530190915401A0915501B091AE
:10032000560126B5A89B05C02F3F19F00196A11DC7
:10033000B11D3FBFBA2FA92F982F8827BC01CD012F
:10034000620F711D811D911D42E0660F771F881F8E
:10035000991F4A95D1F708958F929F92AF92BF92BD
:10036000CF92DF92EF92FF920E9487014B015C01D6
:1003700086E9C82ED12CE12CF12C0E948701681946
:1003800079098A099B09683E734081059105A8F3A4
:1003900021E0C21AD108E108F10888EE880E83E056
:1003A000981EA11CB11CC114D104E104F10429F769
:1003B000FF90EF90DF90CF90BF90AF909F908F9085
:1003C0000895AF92BF92CF92DF92EF92FF920F9378
:1003D0001F93CF93DF936C017B018B01040F151FDB
:1003E000EB015E01AE18BF08C017D10759F0699143
:1003F000D601ED91FC910190F081E02DC6010995A7
:10040000892B79F7C501DF91CF911F910F91FF9053
:10041000EF90DF90CF90BF90AF900895FC01538D87
:10042000448D252F30E0842F90E0821B930B5417CE
:1004300010F0CF96089501970895FC01918D828D5B
:10044000981761F0A28DAE0FBF2FB11D5D968C91F4
:10045000928D9F5F9F73928F90E008958FEF9FEF33
:100460000895FC01918D828D981731F0828DE80FEF
:10047000F11D858D90E008958FEF9FEF0895FC01A9
:10048000918D228D892F90E0805C9F4F821B910976
:100490008F739927089587E591E00E943F0221E03C
:1004A000892B09F420E0822F089580E090E0892BC9
:1004B00029F00E944B0281110C9400000895FC0168
:1004C000A48DA80FB92FB11DA35ABF4F2C91848DB5
:1004D00090E001968F739927848FA689B7892C9312
:1004E000A089B1898C91837080648C93938D848D65
:1004F000981306C00288F389E02D80818F7D808368
:100500000895EF92FF920F931F93CF93DF93EC0127
:1005100081E0888F9B8D8C8D98131AC0E889F989AA
:10052000808185FF15C09FB7F894EE89FF896083AD
:10053000E889F98980818370806480839FBF81E02E
:1005400090E0DF91CF911F910F91FF90EF90089570
:10055000F62E0B8D10E00F5F1F4F0F731127E02E4B
:100560008C8D8E110CC00FB607FCFACFE889F98983
:10057000808185FFF5CFCE010E945F02F1CFEB8D28
:10058000EC0FFD2FF11DE35AFF4FF0829FB7F89457
:100590000B8FEA89FB8980818062CFCFCF93DF9375
:1005A000EC01888D8823B9F0AA89BB89E889F9898B
:1005B0008C9185FD03C0808186FD0DC00FB607FCC0
:1005C000F7CF8C9185FFF2CF808185FFEDCFCE01F3
:1005D0000E945F02E9CFDF91CF910895CF93DF931F
:1005E000EC018091F4019091F501009759F0209170
:1005F000F6013091F7012C173D0720F081E0DF91E3
:10060000CF910895BE016F5F7F4F0E94030E009748
:1006100089F09093F5018093F401D093F701C09392
:10062000F6012091F8013091F901232B39F7FC01F3
:100630001082E4CF80E0E3CF0F931F93CF93DF933B
:10064000009731F480E0DF91CF911F910F910895D1
:1006500061157105E9F08C01C091F801D091F901A3
:10066000C60FD71FCE010E94EE02882359F32091B6
:10067000F4013091F5018091F8019091F901B801F0
:10068000820F931F0E94C90ED093F901C093F80105
:1006900081E0D9CFFC0101900020E9F73197BF013B
:1006A000681B790B0C941C030F931F93CF93DF935C
:1006B000CDB7DEB728970FB6F894DEBF0FBECDBF1B
:1006C0004AE08E010F5F1F4FB8010E947709F801C1
:1006D00001900020E9F73197BF01601B710BC80141
:1006E0000E941C0328960FB6F894DEBF0FBECDBF44
:1006F000DF91CF911F910F9108950F931F93CF9387
:10070000DF93CDB7DEB764970FB6F894DEBF0FBEA8
:10071000CDBF8E010F5F1F4F22E044E00E945909B8
:10072000FC0101900020E9F73197BF01681B790BAC
:100730000E941C0364960FB6F894DEBF0FBECDBFB7
:10074000DF91CF911F910F9108950F931F93809187
:1007500042019091430108970CF03BC010920A01AE
:100760001092090161E083E10E940A0183E290E0B6
:100770000197F1F760E083E10E940A01E6EAF1E007
:100780006491E2E9F1E0E491F0E0EE0FFF1FEE5931
:10079000FE4F8591949100E412E42FE030E0462F63
:1007A0000E944405611571058105910551F06F5F47
:1007B0007F4F8F4F9F4F9F70663274408105910528
:1007C00040F41092040181E090E090930A0180933C
:1007D00009011F910F910895CF93DF93EC0190E0F1
:1007E00080E00E94EE022091F4013091F501811128
:1007F0009FC02115310519F0C9010E947A0D109290
:10080000F5011092F4011092F9011092F801109282
:10081000F7011092F6018091090190910A010E945E
:10082000540383E291E00E944A03CE010E945403E4
:1008300085E291E00E944A038091070190910801AE
:100840000E94540385E291E00E944A0360914801AE
:100850007091490180914A0190914B010E947D0362
:1008600085E291E00E944A03809102019091030188
:100870000E94540385E291E00E944A036091300196
:100880007091310180913201909133010E947D037A
:1008900085E291E00E944A0380910001909101015C
:1008A0000E94540385E291E00E944A0360912C016A
:1008B00070912D0180912E0190912F010E947D0356
:1008C00085E291E00E944A03809105019091060122
:1008D0000E94540385E291E00E944A036091440122
:1008E0007091450180914601909147010E947D03DE
:1008F00085E291E00E944A0380914C0190914D0164
:100900000E9454034091F8015091F9016091F40163
:100910007091F50187E591E00E94E10142E050E02D
:1009200067E271E087E591E0DF91CF910C94E101FE
:100930001092F9011092F80169E271E0C9010E9478
:10094000C90E69CF1F920F920FB60F9211242F93E9
:100950003F938F939F93AF93BF9380914F0190915B
:100960005001A0915101B091520130914E0123E00C
:10097000230F2D3758F50196A11DB11D20934E016F
:1009800080934F0190935001A0935101B093520175
:100990008091530190915401A0915501B09156015D
:1009A0000196A11DB11D8093530190935401A09312
:1009B0005501B0935601BF91AF919F918F913F9197
:1009C0002F910F900FBE0F901F90189526E8230FC0
:1009D0000296A11DB11DD2CF1F920F920FB60F929A
:1009E00011242F933F934F935F936F937F938F9334
:1009F0009F93AF93BF93EF93FF9387E591E00E949E
:100A00005F02FF91EF91BF91AF919F918F917F9185
:100A10006F915F914F913F912F910F900FBE0F906B
:100A20001F9018951F920F920FB60F9211242F93BB
:100A30008F939F93EF93FF93E0916701F09168018B
:100A40008081E0916D01F0916E0182FD1BC090816B
:100A5000809170018F5F8F7320917101821741F037
:100A6000E0917001F0E0E95AFE4F958F809370019C
:100A7000FF91EF919F918F912F910F900FBE0F904B
:100A80001F9018958081F4CFCF92DF92EF92FF9262
:100A90000F931F93E82FF92F05C001501109210969
:100AA000310961F1908196239417B9F305C0015083
:100AB00011092109310911F1908196239413F7CF7F
:100AC000C12CD12CE12CF12C0AC08FEFC81AD80A06
:100AD000E80AF80A0C151D052E053F0579F08081FE
:100AE0008623841791F36C2D7D2D8E2D9F2D1F91C4
:100AF0000F91FF90EF90DF90CF90089560E070E04D
:100B000080E090E01F910F91FF90EF90DF90CF90E9
:100B1000089510925A011092590188EE93E0A0E0D6
:100B2000B0E080935B0190935C01A0935D01B09372
:100B30005E0185E191E0909358018093570185EC27
:100B400090E0909364018093630184EC90E0909333
:100B500066018093650180EC90E09093680180933A
:100B6000670181EC90E090936A018093690182ECC7
:100B700090E090936C0180936B0186EC90E09093F1
:100B80006E0180936D0110927001109271011092AC
:100B90007201109273011092F5011092F4011092FB
:100BA000F7011092F6011092F9011092F80190E00D
:100BB00080E00E94EE022091F4013091F501811154
:100BC00013C02115310519F0C9010E947A0D109248
:100BD000F5011092F4011092F9011092F8011092AF
:100BE000F7011092F60108951092F9011092F801A0
:100BF00069E271E0C9010C94C90E789484B58260F1
:100C000084BD84B5816084BD85B5826085BD85B5B0
:100C1000816085BD80916E00816080936E0010922E
:100C200081008091810082608093810080918100A9
:100C3000816080938100809180008160809380003A
:100C40008091B10084608093B1008091B000816098
:100C50008093B00080917A00846080937A008091C4
:100C60007A00826080937A0080917A00816080931C
:100C70007A0080917A00806880937A001092C10097
:100C8000E0916701F091680182E08083E091630167
:100C9000F09164011082E0916501F09166018FECA2
:100CA000808310926F01E0916B01F0916C0186E0FE
:100CB0008083E0916901F0916A0180818061808385
:100CC000E0916901F0916A01808188608083E09100
:100CD0006901F0916A01808180688083E0916901F7
:100CE000F0916A0180818F7D808361E083E10E94C1
:100CF000560160E082E10E94560161E086E10E94B7
:100D0000560161E087E10E94560161E088E10E949E
:100D1000560161E089E10E94560161E08AE10E948A
:100D2000560161E08BE10E94560161E08CE10E9476
:100D3000560161E08DE10E94560161E08EE10E9462
:100D4000560161E08FE10E94560161E080E20E945D
:100D5000560161E081E20E94560160E083E10E9459
:100D60000A01C0E0D0E087E591E00E943F0218163A
:100D700019060CF0CDC087E591E00E941D02982F66
:100D80002091090130910A012130310509F066C234
:100D9000913309F0C8C061E082E00E940A0160E07E
:100DA00083E00E940A0160E084E00E940A018091D1
:100DB000090190910A018130910509F09AC0809152
:100DC000070190910801181619060CF0A1C01092A5
:100DD0000A0110920901019790930801809307017D
:100DE00080910501909106010197909306018093EF
:100DF000050120E030E040EC5FE360914801709134
:100E0000490180914A0190914B010E946C0C6093C2
:100E100048017093490180934A0190934B0120E06F
:100E200030E040EC5FE360914401709145018091B6
:100E30004601909147010E946C0C609344017093AD
:100E40004501809346019093470181E090E00E9424
:100E5000EC0380910401882309F4D5C161E086E1A7
:100E60000E940A0160E087E10E940A0160E088E1D7
:100E70000E940A0160E089E10E940A010E94AC011F
:100E800060E086E10E940A0161E087E10E940A01B8
:100E900060E088E10E940A0160E089E10E940A01A5
:100EA0000E94AC0160E086E10E940A0160E087E1F7
:100EB0000E940A0161E088E10E940A0160E089E184
:100EC0000E940A010E94AC0160E086E10E940A01D2
:100ED00060E087E10E940A0160E088E10E940A0167
:100EE00061E089E10E940A010E94AC010E94A50311
:100EF000B0CF892B69F480914C0190914D010196FE
:100F000090934D0180934C0181E090E00E94EC03AE
:100F1000209709F428CF0E944B02882309F423CF9D
:100F20000E94000020CF923309F0BCC060E082E054
:100F30000E940A0161E083E00E940A0160E084E00F
:100F40000E940A018091090190910A018130910566
:100F500009F099C0809102019091030118161906B9
:100F6000BCF610920A0110920901019790930301B7
:100F70008093020180910501909106010197909361
:100F800006018093050120E030E040E050E46091EC
:100F900030017091310180913201909133010E94B2
:100FA0006C0C609330017093310180933201909307
:100FB000330120E030E040E050E460914401709162
:100FC000450180914601909147010E946C0C60930D
:100FD000440170934501809346019093470182E05C
:100FE00090E00E94EC0380910401882309F40BC176
:100FF00061E08AE10E940A0160E08BE10E940A013F
:1010000060E08CE10E940A0160E08DE10E940A012B
:101010000E94AC0160E08AE10E940A0161E08BE17C
:101020000E940A0160E08CE10E940A0160E08DE10B
:101030000E940A010E94AC0160E08AE10E940A015C
:1010400060E08BE10E940A0161E08CE10E940A01EC
:1010500060E08DE10E940A010E94AC0160E08AE13B
:101060000E940A0160E08BE10E940A0160E08CE1CD
:101070000E940A0161E08DE10E940A010E94AC0118
:101080000E94A503B0CF892B09F042CF80914C017B
:1010900090914D01019690934D0180934C0182E017
:1010A00090E034CF933309F033CF60E082E00E94C8
:1010B0000A0160E083E00E940A0161E084E00E948E
:1010C0000A018091090190910A018130910509F08E
:1010D000B6C08091000190910101181619060CF01C
:1010E00017CF10920A011092090101979093010104
:1010F00080930001809105019091060101979093E2
:1011000006018093050120E030E040E250E4609168
:101110002C0170912D0180912E0190912F010E9440
:101120006C0C60932C0170932D0180932E01909391
:101130002F0120E030E040E250E4609144017091E2
:10114000450180914601909147010E946C0C60938B
:10115000440170934501809346019093470183E0D9
:1011600090E00E94EC0380910401882309F44BC0B5
:1011700061E08EE10E940A0160E08FE10E940A01B5
:1011800060E080E20E940A0160E081E20E940A01C0
:101190000E94AC0160E08EE10E940A0161E08FE1F3
:1011A0000E940A0160E080E20E940A0160E081E2A0
:1011B0000E940A010E94AC0160E08EE10E940A01D7
:1011C00060E08FE10E940A0161E080E20E940A0172
:1011D00060E081E20E940A010E94AC0160E08EE1C1
:1011E0000E940A0160E08FE10E940A0160E080E253
:1011F0000E940A0161E081E20E940A010E94AC01A2
:101200000E94A503B0CF80914201909143019C01BF
:101210002F5F3F4F309343012093420120914C01B7
:1012200030914D012150310930934D0120934C01F3
:10123000880F991FFC01EC5CFE4F9081A9CD892B92
:1012400009F066CE80914C0190914D0101969093EA
:101250004D0180934C0183E090E058CE232B09F0A0
:1012600057CE20914C0130914D012F5F3F4F30936D
:101270004D0120934C0120912A0130912B01F9015D
:10128000EE0FFF1FEC5CFE4F082E000C990B9183B4
:1012900080832F5F3F4F30932B0120932A0138CE5C
:1012A0008091F4019091F501009711F00C947A0D62
:1012B0000895EF920F931F93CF93DF93E80134E0EB
:1012C00047FD34E1042E000C550B57FF03C0519528
:1012D00041955109E32E022F242FAE010E949C0953
:1012E000CE01DF91CF911F910F91EF900895BB2711
:1012F0004A3031F4992322F4BDE2909581959F4FB5
:101300000C948309BB27FB015527AA27880F991F37
:10131000AA1FA41710F0A41B83955051B9F7A05D24
:10132000AA3308F0A95DA193009779F7B111B193A1
:101330001192CB010C94D30BA9E0B0E0E2EAF9E002
:101340000C943A0C6A01F22EB02E102FFBE3AF2E54
:10135000A01608F41BE31F5F012F27E0AE014F5FCB
:101360005F4F0E94FB0ABC018981982F99709130D0
:1013700009F43FC09BE2E1FC04C09E2D9170E0FCAB
:101380003AC05E2D5071E82FE87083FF46C084E0BC
:10139000911101C083E0EF2DE81B8F1508F0E0E00C
:1013A000D6018E2F20E2552351F1992329F0D60141
:1013B0009C93C60101966C0196012D5F3F4FE2FEA2
:1013C00024C08EE4D6018C9391E411969C931197DE
:1013D00012968C93D9018E2F90E281111BC0E20FDF
:1013E000F32FF11D10828EEF9FEF2996ECE00C9405
:1013F000560C9DE2C6CF90E2C4CF2D93815081114F
:10140000FCCFCE0ED11CE0E0D0CF8EE6D6018C937F
:1014100091E6DBCF9D938150E0CF482F447082FF4F
:101420003DC084E0911101C083E08F1510F4EF2DD1
:10143000E81BD6018E2F20E2552309F1992329F0CC
:10144000D6019C93C60101966C0196012D5F3F4F1A
:10145000E2FE1BC089E4D6018C938EE411968C9336
:10146000119786E412968C93D9018E2F90E28823EF
:1014700009F4B5CF9D938150FACF2D9381508111FE
:10148000FCCFCE0ED11CE0E0D9CF89E6D6018C93FB
:101490008EE611968C93119786E6E4CF9B0177FF39
:1014A00002C030E020E0A1E0B0E0911102C0B0E065
:1014B000A0E0F9013196AE0FBF1F8B2C912CBB2001
:1014C00009F461C05401EFEFAE1ABE0AAA0DBB1DAC
:1014D000FA161B0619F014F04F2D4A1B511188C043
:1014E000E3FC59C07601A42FB0E2A1114FC0C40E95
:1014F000D11C992309F45BC040E0D6011196F60196
:1015000090836D01552309F448C0012F060F9A817D
:10151000582F507184FF03C0913309F40150101605
:101520000CF047C0093008F008E0EEE2FE2E5B0147
:10153000A01AB10885019194819491082F3F320738
:1015400029F4D601FC92F60131966F0162177307F8
:1015500094F1021713077CF5DB01A21BB30BAA243D
:10156000A394B12CAC0EBD1EAA0DBB1D11968C917F
:1015700021503109D601119628153905F4F0F601EC
:1015800080836D01DBCFB12CA12CA0CFF701B193EB
:101590007F01A150AACF9111B0CFD601942F50E373
:1015A00002C05D9391509111FCCFC40ED11C40E05C
:1015B000ACCF01E0BACF80E3DBCF6217730731F421
:1015C000963388F4953311F4552369F0F60180833E
:1015D000FD01842F90E2811108C0A40FB11D1C925F
:1015E00090E080E002CF81E3F1CF91938150F3CF7F
:1015F000911183CF8ACF283008F027E03327DA0112
:10160000990F311D87FD916000966105710539F4D0
:1016100032602E5F3D9330E32A95E1F708959F3FB6
:1016200030F080387105610509F03C5F3C5F3D9307
:10163000913008F08068911DDF93CF931F930F9333
:10164000FF92EF92192F987F9695E92F9695969590
:10165000E90FFF27EE53FF4F99273327EE24FF248E
:10166000A701E70105900894079428F4360FE71EB8
:10167000F81E491F511D660F771F881F991F06947A
:10168000A1F70590079428F4E70EF81E491F561F8E
:10169000C11D770F881F991F661F0694A1F705903B
:1016A000079428F4F80E491F561FC71FD11D880F35
:1016B000991F661F771F0694A1F70590079420F4E1
:1016C000490F561FC71FD81F990F661F771F881F06
:1016D0000694A9F784911095177041F0D695C79597
:1016E00057954795F794E7941A95C1F7E8E6F0E027
:1016F00068941590159135916591959105907FE2CB
:101700007395E118F10A430B560BC90BD009C0F7CA
:10171000E10CF11E431F561FC91FD01D7EF470330C
:1017200011F48A95E6CFE894015030F0080F0AF4DE
:101730000027021708F4202F2395022F7A3328F070
:1017400079E37D932A95E9F710C07D932A9589F670
:10175000069497956795379517951794E118F10AB0
:10176000430B560BC90BD00998F023957E917395C6
:101770007A3308F070E37C932013B8F77E917061A0
:101780007D9330F0839571E37D9370E32A95E1F7C3
:101790001124EF90FF900F911F91CF91DF91992726
:1017A00087FD90950895DC01FC01672F71917723E7
:1017B000E1F7329704C07C916D9370836291AE170C
:1017C000BF07C8F3089597F99F6780E870E060E06D
:1017D00008959FEF80EC089500240A9416161706CA
:1017E00018060906089500240A9412161306140612
:1017F00005060895092E0394000C11F4882352F075
:10180000BB0F40F4BF2B11F460FF04C06F5F7F4F2C
:101810008F4F9F4F089557FD9058440F551F59F013
:101820005F3F71F04795880F97FB991F61F09F3FCD
:1018300079F087950895121613061406551FF2CFF6
:101840004695F1DF08C0161617061806991FF1CF46
:1018500086957105610508940895E894BB2766276D
:101860007727CB0197F908952F923F924F925F927D
:101870006F927F928F929F92AF92BF92CF92DF92A0
:10188000EF92FF920F931F93CF93DF93CDB7DEB705
:10189000CA1BDB0B0FB6F894DEBF0FBECDBF099499
:1018A0002A88398848885F846E847D848C849B84F0
:1018B000AA84B984C884DF80EE80FD800C811B81FE
:1018C000AA81B981CE0FD11D0FB6F894DEBF0FBE2D
:1018D000CDBFED0108955058BB27AA270E94830C65
:1018E0000C94FA0B0E94EC0B38F00E94F30B20F0E2
:1018F00039F49F3F19F426F40C94E90B0EF4E095AB
:10190000E7FB0C94E30BE92F0E940B0C58F3BA177A
:10191000620773078407950720F079F4A6F50C9405
:101920002D0C0EF4E0950B2EBA2FA02D0B01B90152
:1019300090010C01CA01A0011124FF27591B99F045
:10194000593F50F4503E68F11A16F040A22F232F51
:10195000342F4427585FF3CF469537952795A795A1
:10196000F0405395C9F77EF41F16BA0B620B730B48
:10197000840BBAF09150A1F0FF0FBB1F661F771FB9
:10198000881FC2F70EC0BA0F621F731F841F48F46E
:10199000879577956795B795F7959E3F08F0B0CFF7
:1019A0009395880F08F09927EE0F979587950895DE
:1019B000EE0FFF1F0590F491E02D09940F931F93F4
:1019C000CF93DF938230910510F482E090E0E091B4
:1019D000FC01F091FD0130E020E0B0E0A0E03097A4
:1019E00099F42115310509F44AC0281B390B24301C
:1019F0003105D8F58A819B816115710589F1FB015B
:101A000093838283FE0111C0408151810281138141
:101A100048175907E0F04817590799F4109761F0F3
:101A200012960C93129713961C933296CF01DF9166
:101A3000CF911F910F9108950093FC011093FD0128
:101A4000F4CF2115310551F04217530738F0A901A1
:101A5000DB019A01BD01DF01F801C1CFEF01F9CF30
:101A60009093FD018093FC01CDCFFE01E20FF31FA7
:101A7000819391932250310939832883D7CF2091C4
:101A8000FA013091FB01232B41F420910D0130919B
:101A90000E013093FB012093FA0120910B0130914C
:101AA0000C012115310541F42DB73EB740910F01CE
:101AB00050911001241B350BE091FA01F091FB01CC
:101AC000E217F307A0F42E1B3F0B2817390778F015
:101AD000AC014E5F5F4F2417350748F04E0F5F1F74
:101AE0005093FB014093FA01819391939FCFF0E0D3
:101AF000E0E09CCFCF93DF930097E9F0FC013297B1
:101B000013821282A091FC01B091FD01ED0130E041
:101B100020E01097A1F420813181820F931F209142
:101B2000FA013091FB012817390709F061C0F093E1
:101B3000FB01E093FA01DF91CF910895EA01CE17FE
:101B4000DF07E8F54A815B819E0141155105B1F738
:101B5000E901FB83EA8349915991C40FD51FEC1722
:101B6000FD0761F4808191810296840F951FE90140
:101B700099838883828193819B838A83F0E0E0E06C
:101B800012968D919C9113970097B9F52D913C91E8
:101B90001197CD010296820F931F2091FA01309187
:101BA000FB012817390739F6309751F51092FD01DE
:101BB0001092FC01B093FB01A093FA01BCCFD38338
:101BC000C28340815181840F951FC817D90761F4E2
:101BD0004E5F5F4F88819981480F591F5183408321
:101BE0008A819B81938382832115310509F0B0CFCF
:101BF000F093FD01E093FC019ECFFD01DC01C0CF1D
:101C000013821282D7CFB0E0A0E0E9E0FEE00C94AE
:101C1000360C8C01009751F4CB010E94DE0C8C0134
:101C2000C801CDB7DEB7E0E10C94520CFC01E60F21
:101C3000F71F9C0122503109E217F30708F49DC0F9
:101C4000D901CD91DC911197C617D70798F0C5300F
:101C5000D10530F3CE0104978617970708F3C61B0A
:101C6000D70B2297C193D1936D937C93CF010E94A0
:101C70007A0DD6CF5B01AC1ABD0A4C018C0E9D1EAD
:101C8000A091FC01B091FD01512C412CF12CE12CD3
:101C9000109731F58091FA019091FB018815990513
:101CA00009F05CC04616570608F058C080910B0139
:101CB00090910C01009741F48DB79EB740910F01B0
:101CC00050911001841B950BE817F90708F055C0D7
:101CD000F093FB01E093FA01F90171836083A0CFD7
:101CE0008D919C91119712966C90129713967C90FF
:101CF0001397A815B90559F56C0142E0C40ED11C23
:101D0000CA14DB0420F1AC014A195B09DA0112960E
:101D1000159780F06282738251834083D9016D935D
:101D20007C93E114F10471F0D7011396FC93EE93C8
:101D3000129776CF22968C0F9D1FF9019183808395
:101D4000F301EFCFF093FD01E093FC0169CF48165A
:101D5000590608F42C017D01D3019ACFCB010E94D2
:101D6000DE0C7C01009749F0AE01B8010E94C00E64
:101D7000C8010E947A0D870153CF10E000E050CFD8
:101D8000FB01DC0102C001900D9241505040D8F798
:101D90000895FB01DC0101900D920020E1F7089508
:101DA00010E0CFEDD0E004C0FE010E94D80C2196D7
:0A1DB000C03ED107C9F7F894FFCF39
:101DBA0003000300010900030001000000FE018086
:101DCA0000000000008102E1010E02CE023F021D66
:0A1DDA000231022D003B000D0A004B
:00000001FF
